:0600000002010D02016186
:01000B0032C2
:0300130002013CAB
:01001B0032B2
:1000230002013F2A2A2A2A2048454C4C4F202A2ADB
:100033002A2A20102020495020436F72652038302F
:10004300353120201020505245535320414E592022
:100053004B4559202010204B455920204E554D42E9
:1000630045522030202010204B455920204E554D1D
:100073004245522031202010204B455920204E5517
:100083004D4245522032202010204B455920204E0E
:10009300554D4245522033202010204B45592020F6
:1000A3004E554D4245522034202010204B455920B7
:1000B300204E554D4245522035202010204B4559A6
:1000C30020204E554D4245522036202010204B45CE
:1000D3005920204E554D4245522037202010204BA9
:1000E300455920204E554D4245522038202010209E
:1000F3004B455920204E554D424552203920201062
:10010300596A7B8C9DAEBFD0E1F2758160750800A2
:10011300C2A6D2B47401F2D2A690002612018A902C
:1001230000371201B075980075880575B81075A869
:100133009590004812018A80FED29C32C0E0C082B2
:10014300C083C0D075837F850882E599F0058285D9
:100153008208759800D0D0D083D082D0E032C0E03E
:10016300C082C083C000C0D0E590540F90010393B8
:10017300F5827583001201B0C2B5D2B5D0D0D000DC
:10018300D083D082D0E032C0007800C2A6C2B4745B
:1001930000936410600D740093F2A308E864106088
:1001A3000280ECD2B47402F2D2A6D00022C000784E
:1001B30010C2A6C2B47400936410600D740093F26D
:1001C300A308E86420600280ECD2B47402F2D2A6E1
:0301D300D0002237
:00000001FF
